:020000040800F2
:10000000000600209D01000861190008631900081E
:10001000671900086B1900086F190008000000003C
:10002000000000000000000000000000731900083C
:1000300075190008000000007719000879190008F8
:10004000B7010008B7010008B7010008B7010008B0
:10005000B7010008B7010008B7010008B7010008A0
:10006000B7010008B7010008B7010008B701000890
:10007000B7010008B7010008B7010008B701000880
:10008000B7010008B7010008B7010008B701000870
:1000900085190008B7010008B7010008B70100087A
:1000A000B7010008B7010008B7010008B701000850
:1000B000B7010008B7010008B7010008B701000840
:1000C000B7010008B7010008B7010008B701000830
:1000D000B7010008B7010008B7010008B701000820
:1000E000B7010008B7010008AF190008B701000800
:1000F000B7010008B7010008B7010008B701000800
:10010000000000000000000000000000B70100082F
:10011000B7010008B7010008B7010008B7010008DF
:10012000B7010008B7010008B7010008B7010008CF
:10013000B7010008B701000800000000000000003F
:10014000B7010008B7010008B7010008000000006F
:10015000000000000000000000000000000000009F
:100160000000000000000000B7010008B70100080F
:10017000B7010008000000000000000000000000BF
:1001800000000000B7010008DFF80CD003F050FBBE
:1001900000480047CD1800080006002006488047A8
:1001A00006480047FEE7FEE7FEE7FEE7FEE7FEE75C
:1001B000FEE7FEE7FEE7FEE77D0200088901000892
:1001C0000CB50020019000906B48006840F480302E
:1001D0006949086000BF6848006800F4003000907A
:1001E0000198401C0190009818B90198B0F5A06FD3
:1001F000F1D16148006800F4003010B10120009096
:1002000001E0002000900098012836D112205B49BF
:100210000860594840685849486008464068486046
:100220000846406840F4806048600846406820F412
:100230007C1048600846406840F4E8104860084672
:10024000006840F08070086000BF4B48006800F014
:1002500000700028F9D04848406820F00300464963
:1002600048600846406840F00200486000BF4248CD
:10027000406800F00C000828F9D10CBD10B54048CA
:10028000006840F470003E4908603B48006840F058
:10029000010039490860084640683A490840364933
:1002A00048600846006838490840334908600846F5
:1002B000006820F4802008600846406820F4FE00B2
:1002C00048600846C06A20F00F00C8620846006B0C
:1002D0002E4908402849086300208860FFF770FF16
:1002E0004FF0006026498039086010BD30B500210C
:1002F000002000220023204C646804F00C0121B18E
:10030000042906D0082925D107E0214C214D2C6075
:1003100024E01F4C1F4D2C6020E0174C646804F44F
:100320007010154C646804F48032022404EB904091
:1003300022B9194C4443174D2C600AE00E4CE46A74
:1003400004F00F04631C124CB4FBF3F44443114D4E
:100350002C6003E00E4C0F4D2C6000BF00BF064C1C
:100360006468C4F303140D4D295D0A4C2468CC4025
:10037000084D2C6030BD00000010024000200240FB
:1003800088ED00E00CC07FF8FFFFF6FECCFC00FF1C
:1003900000127A000000002000093D000400002047
:1003A0004FF0FC509A4908600020091D0860091DA3
:1003B0000860091D0860091D08606FF0FC50091DE8
:1003C00008600C209249203108600020091D086057
:1003D000091D0860091D0860091D08600320091D2A
:1003E0000860704710B5002189498279002A7DD0C4
:1003F00002685209874B03EB4212D2F800240378BB
:1004000003F01F040123A3409A4303685B09814C56
:1004100004EB4313C3F8002402685209234603EB9C
:100420004212D2F80424037803F01F040123A340EE
:100430009A4303685B09774C04EB4313C3F8042425
:1004400003790268520903EB421211440A680378E7
:1004500003F01F040123A3401A430A606C49026899
:1004600052096C4B03EB4212D2F80824037803F0D4
:100470001F040123A3409A4303685B09654C04EB06
:100480004313C3F8082402685209234603EB4212BF
:10049000D2F80C24037803F01F040123A3409A43ED
:1004A00003685B095B4C04EB4313C3F80C244279EB
:1004B000102A2AD102685209234603EB4212D2F8CD
:1004C0000824037803F01F040123A3401A430368A0
:1004D0005B09504C04EB4313C3F80824026852092B
:1004E000234603EB4212D2F80C2400E01CE0037810
:1004F00003F01F040123A3401A4303685B09454C22
:1005000004EB4313C3F80C241CE04379026852093E
:1005100003EB421211440A68037803F01F0401231D
:10052000A3401A430A600DE003790268520903EB05
:10053000421211440A68037803F01F040123A34008
:100540009A430A6010BD00210160017110214171C0
:1005500000218171704741092E4A02EB4111D1F807
:10056000101400F01F0301229A4011434209294B45
:1005700003EB4212C2F81014704710B50146002078
:100580004A09244B03EB4212D2F8142401F01F0451
:100590000123A3401A400AB1012000E0002010BD51
:1005A00000F01F020121914042091A4B03EB421255
:1005B000C2F81414704730B50146002000224B09E0
:1005C000144C04EB4313D3F8003401F01F0501244D
:1005D000AC4003EA04024B090E4C04EB4313D3F87E
:1005E000143401F01F050124AC40234013B10AB1BB
:1005F000012000E0002030BD00F01F0201219140E9
:100600004209044B03EB4212C2F814147047000075
:10061000000401400000014010B50446B4F1904FC1
:1006200009D10121480400F01FFD00214FF40030E2
:1006300000F01AFD3CE07048844208D1012100021C
:1006400000F012FD0021200200F00EFD30E06B48AA
:10065000844208D10121000200F006FD00212002A1
:1006600000F002FD24E06648844209D1012108051A
:1006700000F0FAFC00214FF4801000F0F5FC17E0C8
:100680006048844208D10121400200F0EDFC0021C5
:10069000600200F0E9FC0BE05B48844208D10121D4
:1006A000880500F0E1FC00214FF4800000F0DCFC44
:1006B00010BDF0B50A4600210023002400BF3DE034
:1006C000012505FA01F3156805EA03049C4234D1BB
:1006D0001579012D02D01579022D16D185684F00AC
:1006E0000326BE40B543856055794E00B540866807
:1006F00035438560868801258D40AE438680868897
:1007000095798D40ADB22E43868005684F00032653
:10071000BE40B543056015794E00B54006683543C7
:100720000560C5684F000326BE40B543C560D57956
:100730004E00B540C6683543C560491C1029BFD37B
:10074000F0BD4FF6FF71016000210171022141717E
:1007500000218171C17170474FF480320A43C26138
:10076000C161C261C269C269704702460020138A32
:100770000B400BB1012000E0002070470146088AC1
:10078000704702460020938A0B400BB1012000E025
:10079000002070470146888A704781617047018553
:1007A00070470AB1816100E001857047818270471E
:1007B000F0B5002300244D07ED0E02FA05F3CE102C
:1007C00000F1200555F826504E07F70E0F26BE40C3
:1007D000B543CF1000F1200646F82750CE1000F1A7
:1007E000200555F8265045EA0304CE1000F12005F7
:1007F00045F82640F0BD000000040048000800480D
:10080000000C004800100048001400483149014322
:10081000314A1160704770B5002100230F22C4785F
:1008200004B32D4C246804F4E064C4F5E064210AA8
:10083000C1F10403CA40447804FA03F184781440F7
:1008400021430901254C0678A155047804F01F05C1
:100850000124AC4005786D11AD0005F1E025C5F827
:10086000004109E0047804F01F050124AC401C4D50
:100870000678761145F8264070BD1A4A0A400243B0
:10088000154B1B1F1A60704739B1134A121D1268AD
:100890000243114B1B1D1A6006E00F4A121D12681D
:1008A00082430D4B1B1D1A607047042808D14FF07E
:1008B000E021096941F004014FF0E022116107E0F5
:1008C0004FF0E021096921F004014FF0E0221161AD
:1008D000704700000000FA050CED00E000E400E0C5
:1008E00080E100E080FFFF1FF948006840F0010050
:1008F000F749086008464068F6490840F4494860EE
:1009000008460068F4490840F14908600846006854
:1009100020F4802008600846406820F4FE0048600B
:100920000846C06A6FF30D00C8620846006BEB49C9
:100930000840E74908630020886070470021E44AC6
:10094000917011468870704710B50246002100234F
:100950000020511111B9DE4C23680BE0012902D1AE
:10096000DB4C236A06E0042902D1D94C636801E01C
:10097000D74C636A02F01F0101248C401C400CB16B
:10098000012000E0002010BD38B5002000900024B8
:10099000002500BF1120FFF7D7FF05460098401C37
:1009A00000900098B0F5A06F01D0002DF2D011207A
:1009B000FFF7CAFF08B1012400E00024204638BD3B
:1009C00001460020C24A106820F0F80040EAC10049
:1009D00010607047C24908607047BD49096A21F03C
:1009E0000101BB4A11621146096A21F0040111623A
:1009F0001146096A014311627047B549096A21F03D
:100A00001801B34A11621146096A01431162704725
:100A1000B44908607047AE4A526822F47412AC4B75
:100A20005A601A46526840EA01031A43A84B5A60BA
:100A30007047AB490866704701460020A44AD06A57
:100A400020F00F000843D0627047A549C864704782
:100A50009F49C8717047014600209D4A506820F0A8
:100A600003000843506070479948406800F00C004C
:100A7000704701460020964A506820F0F000084375
:100A80005060704701460020914A506820F4E060B1
:100A9000084350607047014600208D4A506820F49A
:100AA000605040EAC100506070472DE9F0410021DC
:100AB000002400278C460023002200250026DFF8B2
:100AC0001082D8F8048008F00C0121B1042907D065
:100AD000082930D109E0DFF81082C0F800802FE04B
:100AE000DFF80482C0F800802AE0DFF8E481D8F85B
:100AF000048008F47014DFF8D881D8F8048008F472
:100B000080374FF0020808EB944427B9DFF8DC8106
:100B100004FB08F20DE0DFF8B881D8F82C8008F06B
:100B20000F0808F1010CDFF8C081B8FBFCF808FBE6
:100B300004F2026004E0DFF8B081C0F8008000BF7A
:100B400000BFDFF88C81D8F8048008F0F0010909B3
:100B5000DFF89C8118F80160D0F8008028FA06F8C8
:100B6000C0F80480DFF86881D8F8048008F4E061F8
:100B7000090ADFF87C8118F80130D0F8048028FADF
:100B800003F8C0F80880DFF84881D8F8048008F43A
:100B90006051C90ADFF8588118F80150D0F8048074
:100BA00028FA05F8C0F80C80DFF82481D8F82C80EA
:100BB00008F4F8710909DFF83C8138F8113003F0C6
:100BC0001008B8F1000F04D0B2FBF3F8C0F81080A1
:100BD00003E0D0F80080C0F81080DFF8F480D8F887
:100BE0002C8008F47851490ADFF8088138F8113070
:100BF00003F01008B8F1000F04D0B2FBF3F8C0F80E
:100C0000148003E0D0F80080C0F81480DFF8C080C2
:100C1000D8F8308008F01008B8F1100F04D0DFF8D1
:100C2000C880C0F8188003E0D0F80080C0F81880B1
:100C3000DFF89C80D8F8308008F02008B8F1200F49
:100C400004D0DFF8A480C0F81C8003E0D0F8008056
:100C5000C0F81C80DFF87880D8F8308008F48078FD
:100C6000B8F5807F0AD1D0F80080904506D1B54212
:100C700004D14FEA4208C0F8208003E0D0F80C808D
:100C8000C0F82080DFF84880D8F8308008F4007879
:100C9000B8F5007F0AD1D0F80080904506D1B54262
:100CA00004D14FEA4208C0F8248003E0D0F80C8059
:100CB000C0F82480DFF81880D8F8308008F00308E6
:100CC000B8F1000F18D1D0F80C80C0F828803CE0B3
:100CD0000010024000C0FFF8FFFFF6FECCFC000F42
:100CE000000042428004424200127A0000093D00A6
:100CF0001400002024000020DFF8FC83D8F83080A6
:100D000008F00308B8F1010F04D1D0F80080C0F852
:100D100028801AE0DFF8E083D8F8308008F0030874
:100D2000B8F1020F04D14FF40048C0F828800CE05D
:100D3000DFF8C483D8F8308008F00308B8F1030F57
:100D400003D1DFF8B883C0F82880DFF8AC83D8F887
:100D5000308008F44038B8F1000F04D1D0F8088092
:100D6000C0F82C8028E0DFF89083D8F8308008F4B1
:100D70004038B8F5803F04D1D0F80080C0F82C800E
:100D80001AE0DFF87483D8F8308008F44038B8F5FA
:100D9000003F04D14FF40048C0F82C800CE0DFF88D
:100DA0005883D8F8308008F44038B8F5403F03D174
:100DB000DFF84883C0F82C80DFF83C83D8F8308017
:100DC00008F44028B8F1000F04D1D0F80880C0F82A
:100DD000308028E0DFF82083D8F8308008F44028FD
:100DE000B8F5802F04D1D0F80080C0F830801AE028
:100DF000DFF80483D8F8308008F44028B8F5002FD5
:100E000004D14FF40048C0F830800CE0DFF8E882ED
:100E1000D8F8308008F44028B8F5402F03D1DFF827
:100E2000DC82C0F83080DFF8D082D8F8308008F457
:100E30004018B8F1000F04D1D0F80880C0F8348011
:100E400028E0DFF8B482D8F8308008F44018B8F50C
:100E5000801F04D1D0F80080C0F834801AE0DFF899
:100E60009882D8F8308008F44018B8F5001F04D1F3
:100E70004FF40048C0F834800CE0DFF87C82D8F8EA
:100E8000308008F44018B8F5401F03D1DFF86C82B9
:100E9000C0F83480DFF86082D8F8308008F4400869
:100EA000B8F1000F04D1D0F80880C0F8388028E0ED
:100EB000DFF84482D8F8308008F44008B8F5800F95
:100EC00004D1D0F80080C0F838801AE0DFF828821A
:100ED000D8F8308008F44008B8F5000F04D14FF47A
:100EE0000048C0F838800CE0DFF80C82D8F8308079
:100EF00008F44008B8F5400F03D1DFF80082C0F8CD
:100F00003880BDE8F0810021010F31B17A4AD26A00
:100F100022F47852784BDA6205E0774AD26A22F4FA
:100F2000F872754BDA62744AD26A0243724BDA6223
:100F300070470021010F31B16F4A126B22F020027D
:100F40006D4B1A6305E06C4A126B22F010026A4B7B
:100F50001A63694A126B0243674B1A637047002198
:100F6000010F31B1644A126B22F40072624B1A63B2
:100F700005E0614A126B22F480725F4B1A635E4A8D
:100F8000126B02435C4B1A6370470021010F062964
:100F900027D2DFE801F026030A11181F564A126B08
:100FA00022F00302544B1A631CE0534A126B22F4E2
:100FB0004032514B1A6315E04F4A126B22F4402223
:100FC0004D4B1A630EE04C4A126B22F440124A4B0E
:100FD0001A6307E0484A126B22F44002464B1A6338
:100FE00000E000BF00BF444A126B0243424B1A6349
:100FF00070474349086070473F49096A01433E4AC8
:10100000116270473E49091D086070473D490860FC
:1010100070473C49091D0860704729B1364A52693A
:101020000243354B5A6104E0334A52698243324BE2
:101030005A61704729B1304A926902432E4B9A6136
:1010400004E02D4A926982432B4B9A61704729B183
:10105000294AD2690243284BDA6104E0264AD26960
:101060008243254BDA61704729B1234A926A0243D1
:10107000214B9A6204E0204A926A82431E4B9A6294
:10108000704729B11C4AD26802431B4BDA6004E066
:10109000194AD2688243184BDA60704729B1164A60
:1010A00012690243144B1A6104E0134A1269824325
:1010B000114B1A61704729B10F4A527A02430E4B05
:1010C0005A7204E00C4A527A82430B4B5A727047B0
:1010D0000948406A40F080700749486270470146FD
:1010E0000020054A92680A400AB1012000E0002071
:1010F00070470149887270470010024000127A0060
:10110000D80042423C04424210B50446F9488442A9
:1011100009D101218803FFF7B4FF00214FF480407B
:10112000FFF7AFFF32E0F448844209D101214804BF
:10113000FFF7B4FF00214FF40030FFF7AFFF25E0C9
:10114000EE48844209D101218804FFF7A7FF00215E
:101150004FF48020FFF7A2FF18E0E948844209D14C
:101160000121C804FFF79AFF00214FF40020FFF788
:1011700095FF0BE0E348844208D101210805FFF701
:101180008DFF00214FF48010FFF788FF10BD2DE97F
:10119000F04190B004460D460027B846002620686E
:1011A00020F001002060666826F44056A8680643D7
:1011B0006660266841F20C608643E9686868084307
:1011C0002969084306432660A66826F440766869C4
:1011D0000643A66001A8FFF768FCC648844202D116
:1011E000DDF82C8013E0C448844202D1DDF8308061
:1011F0000DE0C248844202D1DDF8348007E0C048E7
:10120000844202D1DDF8388001E0DDF83C802068BE
:1012100000F4004060B14FEA48002968B0FBF1F7E4
:101220004FEA48002968B0FBF1F201FB120607E023
:101230002868B8FBF0F72868B8FBF0F100FB1186CE
:101240002868B6EB500F00D37F1C206800F40040E4
:1012500038B1C7F342064FF6F07107EA010040EAE1
:101260000607A78110B0BDE8F0814FF41651016068
:10127000002141608160C1600C2101610021416158
:10128000704710B50022426822F47062D1E9003440
:1012900023438C682343CC6823431A43426010BD28
:1012A0000021016041608160C160704721B1026826
:1012B00042F00102026003E0026822F001020260D3
:1012C00070471AB103680B43036002E003688B4365
:1012D0000360704721B1026842F40042026003E0FB
:1012E000026822F400420260704721B1826842F431
:1012F0000062826003E0826822F4006282607047CC
:1013000021B1426842F40022426003E0426822F4C4
:1013100000224260704721B1426842F4802242605C
:1013200003E0426822F48022426070471AB14368A9
:101330000B43436002E043688B434360704721B135
:10134000426842F40042426003E0426822F40042F4
:101350004260704721B1426842F40002426003E0FB
:10136000426822F4000242607047426902F07F4204
:10137000426142690A4342617047028A02F47F4235
:101380000282028A0A430282704721B1026842F057
:101390000202026003E0026822F00202026070476B
:1013A000826822F44012826082680A438260704739
:1013B00021B1426842F48012426003E0426822F4A4
:1013C000801242607047426822F4C0024260426864
:1013D0000A4342607047C1F3080202857047014624
:1013E000888CC0F308007047426822F07F42426058
:1013F000426842EA01624260704721B1026842F4E9
:101400000052026003E0026822F40052026070475A
:10141000026822F40062026002680A4302607047B8
:10142000426822F01002426042680A4342607047FC
:10143000426822F02002426042680A4342607047DC
:1014400021B1426842F48042426003E0426822F4E3
:1014500080424260704721B1826842F00802826097
:1014600003E0826822F0080282607047028AD2B2EA
:101470000282028A42EA01220282704721B1826816
:1014800042F02002826003E0826822F02002826043
:10149000704721B1826842F01002826003E08268E6
:1014A00022F0100282607047826822F4602282601B
:1014B000826842EA414282607047426922F07F427C
:1014C0004261426942EA016242617047826822F0E9
:1014D0000402826082680A438260704721B1826898
:1014E00042F00202826003E0826822F0020282601F
:1014F00070470000003801400044004000480040B0
:10150000004C00400050004021B1826842F480420B
:10151000826003E0826822F48042826070478268C1
:1015200022F40042826082680A4382607047026847
:1015300022F078720260026842EA4152026070470B
:10154000026822F4F8120260026842EA0142026074
:1015500070471AB183680B43836002E083688B4352
:1015600083607047826822F40052826082680A4376
:1015700082607047F0B50346002400260025002055
:101580001846C1F30724CEB2012707FA06F5022C4C
:1015900001D1001D02E0032C00D108301AB1076808
:1015A0002F43076002E00768AF430760F0BD1AB140
:1015B000038B0B43038302E0038B8B43038370474E
:1015C000826822F48052826082680A438260704797
:1015D00002460020D3690B400BB1012000E000203F
:1015E00070470162704770B502460B460024002127
:1015F00000250020C3F30725D9B2012606FA01F120
:10160000012D02D11668314006E0022D02D1566844
:10161000314001E0966831401C0C012606FA04F4C2
:10162000D669344011B10CB1012000E0002070BD3A
:1016300010B5002200230A0C012404FA02F303620D
:1016400010BD00001CB501210846FFF7F3FC012185
:101650004804FFF7E2FC01214805FFF7DEFC4FF4E8
:10166000C050009003208DF8050002208DF8040082
:1016700000208DF806008DF8070069464FF0904075
:10168000FFF717F84FF47F40009003208DF8050016
:1016900001208DF8040069466548FFF70AF80E221C
:1016A0000B214FF09040FFF783F80E220C214FF0F2
:1016B0009040FFF77DF81220FEF79EFF12205D4953
:1016C000086008204871012088710846FEF78AFEEC
:1016D0001CBD10B50020FFF78CFC0121C805FFF7E9
:1016E000B6FC10BD032054490860704710B5534C38
:1016F000A07A18B105205049086002E001204E4947
:101700000860FEF7BBFD10BD08B54FF4A060FFF701
:101710007DF814208DF8000002208DF801000020D3
:101720008DF8020001208DF803006846FFF773F87A
:101730002A208DF8000000208DF801006846FFF790
:101740006AF808BD7047704700207047704708B5B9
:101750003B48007801280AD11220009001226946F6
:10176000812002F033F8012001F0D8FC00BF08BD51
:10177000704730B50B46002100BF16E00A24B4EBD9
:10178000107F05D9302404EB107403F8114005E0F4
:10179000412404EB10740A3C03F8114000010025B9
:1017A0004C00641C1D554C1CE1B29142E6DB30BD7F
:1017B00070B524480468001D0568001D066834449F
:1017C00054B1082220492046FFF7D3FF04221E49C6
:1017D00010312846FFF7CDFF70BD10B54FF4807172
:1017E0001348FEF7DCFF4FF400711148FEF7D7FFF6
:1017F0004FF480610E48FEF7D2FF4FF400610C48B1
:10180000FEF7CDFF4FF480510948FEF7C8FF4FF4B3
:1018100000510748FEF7C3FF4FF480410448FEF72C
:10182000BEFF4FF400410248FEF7B9FF10BD0000B3
:10183000001000484400002058010020E001002072
:1018400059000020ACF7FF1F620000204FF47A71AE
:1018500000BF3D4B1B681846421800BF00BF3A4B03
:101860001B68834204DB00BF374B1B689342F5DBE8
:10187000704770B590B0044601A8FFF716F90298BA
:10188000B0FBF4F1B1F1807F00D31DE021F07F4087
:10189000401E4FF0E022506150170F22002807DA57
:1018A00013071E0E294B00F00F052D1F5E5503E098
:1018B00013071D0E264B1D5400BF00204FF0E022E1
:1018C00090610720106100BF10B070BD4FF47A70B6
:1018D000FFF7CFFFFFF7B6FEFFF7FBFEFFF714FFA2
:1018E00001F078F91B48406940F40010194948613B
:1018F00001214805FFF791FB174800681749084385
:10190000154908601FE01448808A40F42A401249B3
:101910008882FFF79BFF1048808A20F42A400E49F6
:101920008882FFF793FF0C48808A40F4AA400A4956
:101930008882FFF78BFF0848808A20F4AA40064976
:101940008882FFF783FFDEE75C00002018ED00E0EF
:1019500000E400E00010024000100048000055556F
:10196000704700BFFEE700BFFEE700BFFEE700BF15
:10197000FEE77047704770470F480068401C0E49EB
:101980000860704710B500F051F810BD10B50B4954
:101990000B48FFF728FE08B1FFF7EAFE08210848C8
:1019A000FFF716FE10B10648FFF719FD10BD10B580
:1019B0001220FEF721FE10BD5C000020050105008D
:1019C0000038014015480078012802D10020134951
:1019D0000870704710B51249032001F00EFF84B261
:1019E0000F480078552802D101200C4908700320C7
:1019F00001F0ACFB10BD10B50A48006805280CD1F9
:101A0000094801680068401C074A1060052904D194
:101A1000002011460860FFF79AFE10BD5900002013
:101A200080010020580100207C00002010B588B003
:101A3000002469480068694908800846008800F465
:101A4000007067490988084050B14FF6FF5062495D
:101A5000086064480078401C62490870FFF7CBFFBB
:101A60005E48008800F400405D490988084008B1DC
:101A700001F0CEF85948008800F480605849098880
:101A8000084030B14FF6FF30534908605649486866
:101A900080475248008800F40050514909880840A6
:101AA00018B14DF6FF704C4908604C48008800F4AE
:101AB00080504B490988084030B14EF6FF704649C6
:101AC0000860002000F06CFA4448008800F40060D0
:101AD00043490988084060B14448007810B100F0DB
:101AE000D8F902E0022000F05BFA4FF2FF703A49A9
:101AF00008603A48008800F4807039490988084035
:101B0000002866D04FF6FF6033490860081D006862
:101B100000F40040002856D035480068401C344985
:101B2000086008460068032850D92B48001F006849
:101B300000F00800002849D12748001F006880B243
:101B40002C490860002408E02B4901EB8400D0F800
:101B5000000C80B24DF82400641C082CF4D32548F6
:101B6000006840F00100234908600846006880B220
:101B70001949091F08601F48006820F001001D492D
:101B800008600846006880B21349091F086000BF5A
:101B90001148006800F480600028F9D04FF6FF304B
:101BA0000D490860002408E05DF8240080B2124A64
:101BB00002EB8401C1F8000C641C082CF4D3002053
:101BC0000B49086002E0002009490860072000F086
:101BD000E7F908B010BD0000445C00408000002020
:101BE0007601002082000020D40000205C0100204B
:101BF00084000020880000200050004010B5FFF74E
:101C0000D7FD002084490968887200F019F901F0B5
:101C1000CFFDFFF798FD00208049086010BD10B58A
:101C200000207D49096888727D48C0797A49096831
:101C30004872002078490968C87201F0D3F94FF45E
:101C40000071002001F0E8F91021002001F0FDF9F9
:101C50004021002001F0B7FB8021002001F0A7FB0C
:101C6000002001F0AFFA6F4890F82C10002001F02E
:101C7000F0FB002001F06AFA0021012001F0CCF90C
:101C8000C021012001F093FB2021012001F0DDF9AA
:101C90000021012001F0F7F94FF4C061022001F0AA
:101CA000BBF94FF48071022001F081FB002102207A
:101CB00001F0E9F92021022001F0C7F900210320F9
:101CC00001F0AAF94FF48871032001F07CFB402158
:101CD000032001F0BEFB4FF44051032001F0D3F983
:101CE0000021032001F0B1F9002000F0E4FE012002
:101CF0004A49086010BD4C48817A11B10521474A14
:101D000011607047042045490860704710B5474886
:101D10000078202804D1FFF717FD00204349087000
:101D200010BD7047014629B908203B4A126810824D
:101D3000002070473E48FCE7014629B90820364A92
:101D400012681082002070473948FCE770B50446DD
:101D50000025212C09D130480068007800F07F0070
:101D6000212810D1AFF22F050DE0202C0BD12A48ED
:101D70000068007800F07F00212801D1AFF25B05F8
:101D800020202A4908700DB9022070BD2248006841
:101D9000856100212048006841820020A84700207A
:101DA000F3E701461C480068007800F07F00212816
:101DB00007D1022901D100207047222901D100203A
:101DC000FAE70220F8E710B504461A49204600F069
:101DD00068FB10BD10B504461749204600F061FBB2
:101DE00010BD70B505460C480068C478042C01DDB0
:101DF000002070BD114800EBC401284600F051FBE3
:101E0000F7E70246002901DD02207047012A01DDC3
:101E10000220FAE70020F8E76C01002058010020BA
:101E2000DA380008D4000020E0010020C4000020BF
:101E3000C8000020280100203001002038010020C7
:101E400010B50120FFF77EFC0124864804600020C5
:101E50008549088008460088824908600020091DDD
:101E600008604FF4E05080490880084600887D49AA
:101E70000860002010BD10B501207A4908600020DC
:101E8000091D0860FFF75EFC03207649086000200A
:101E900010BD38B50021002200230093714B1B6850
:101EA00098B200BF09E0714C04EB8103D3F8003C09
:101EB0009BB26F4C44F82130491C0829F3D340F4FD
:101EC0008060684B186040F00100186020F001004D
:101ED000186000BF634B1B1D1B6803F48063002B5D
:101EE000F8D04FF6FF335F4C241D2360002109E03A
:101EF0005F4B53F821309BB25C4D05EB8104C4F875
:101F0000003C491C0829F3D340F00800554B1860E9
:101F10001B6898B240F00400524B1860554B1B6888
:101F20000093544B1A6822F0030242F001021A6037
:101F3000514B1B6843F004034F4C2360494B1B1D5E
:101F40001B6803F4805333B930BF23461B6823F06A
:101F50000403236014E04EF6FF73424C241D2360FB
:101F6000231F1B6898B220F00800231F1860414C03
:101F7000009B2360404B1B6823F004033E4C23600E
:101F800038BD10B53748006884B224F004043548E1
:101F90000460FFF7ABFB4FF43F403249086010BDCF
:101FA00070B50546072D01D03448057033480078D8
:101FB00008284ED2DFE800F004111A202B384E4FCB
:101FC0002F48006828B9FFF7DCFF06202B4908706E
:101FD00002E005202949087041E0FFF7D2FF042004
:101FE0002649087001202649086038E0022023496C
:101FF00048700320087032E020484078401E1F4996
:1020000048700846407808B90420087027E0154851
:10201000006884B244F01004124804600520174997
:1020200008700A2048701AE014484078401E13498E
:1020300048700846407858B90A48006884B224F0CD
:102040001004084804600620087000200C4908604D
:1020500005E000BF00BF06200849087000BF00BFB0
:1020600070BD0000405C0040760100200050004040
:10207000C00100200070004010ED00E05D01002074
:102080006001002010B504462CB90120F64909680A
:102090000882002010BDF549096808688047F248A9
:1020A00000680A30F6E710B5EF480068C078F049DC
:1020B0004978884213DCEC480068807878B9EA48AF
:1020C0000068808858B9E8480068C078E64909681F
:1020D0008872E649096848688047002010BD0220E0
:1020E000FCE710B504462CB90120DF4909680882D5
:1020F000002010BDDD49096888688047DA4800681B
:102100000C30F6E710B5D84B1B68D978D64B1B6856
:102110005879D84B1B689A6990470446D2480068A2
:10212000807AE8B13CB9D0480068007918B9CE4847
:102130000068807808B1022010BD8CB9CB490968CD
:10214000C8688047C84800684079C7490968C872AC
:10215000C5480068C078C449096808730020EBE7E7
:102160000220E9E710B504462CB90220BE490968EF
:102170000882002010BD0020BF490880BA480068CE
:10218000007800F07F0018BBB7490968487A00F072
:10219000200131B1B849097841F00201B64A117005
:1021A00005E0B549097801F0FD01B34A117000F06E
:1021B000400131B1B049097841F00101AE4A1170D6
:1021C00005E0AD49097801F0FE01AB4A11703AE033
:1021D000A5480068007800F07F00012801D1A648DA
:1021E000C8E7A1480068007800F07F00022828D1E5
:1021F0009D4A1268517901F00F0001F080027AB116
:102200009E4B03EB8002D2F8002C02F03002102A21
:1022100016D1994A127842F00102974B1A700FE0DA
:10222000964B03EB8002D2F8002C02F44052B2F538
:10223000805F05D1904A127842F001028E4B1A70ED
:1022400001E0002096E789490968086980478A48C3
:1022500090E72DE9F04784480068007800F07F0897
:10226000B8F1000F0AD180480068407A00F0DF0022
:102270007D49096848720020BDE8F087B8F1020F77
:102280007ED179480068408818B97748006800799D
:1022900008B10220F0E7DFF8D89173480068477969
:1022A00027F080052C4670480068407900F08000D7
:1022B00038B1724901EB8400D0F8000C00F0300610
:1022C00006E06E4901EB8400D0F8000C00F44056A3
:1022D00099F80000A84204D91EB163480068807ACA
:1022E00008B90220C8E707F0800080B1634901EB1C
:1022F0008400D0F8000C00F0300010284BD1E0B280
:1023000001F01DF8E0B2302100F09FFE43E05B4990
:1023100001EB8400D0F8000C00F44050B0F5805F71
:1023200039D1E4B9564A92F82C10E0B201F091F894
:10233000524A02EB8401D1F8001C4BF68F7201EA7D
:10234000020080F4805080F4005040F4004141F0DD
:1023500080014A4B03EB8402C2F8001C1BE0E0B290
:1023600000F0D5FF454A02EB8401D1F8001C4BF682
:102370008F7201EA020080F4805080F4005000E087
:102380000FE040F4004141F080013C4B03EB84023C
:10239000C2F8001C00BF3549096848698047002021
:1023A0006AE700BF022067E72DE9F0412E48006888
:1023B000467926F080073C462B480068407900F0BB
:1023C000800038B12D4901EB8400D0F8000C00F0FA
:1023D000300506E0294901EB8400D0F8000C00F438
:1023E000405523480078A04208D91F48006840881B
:1023F00020B91DB11C480068807A10B90220BDE8E0
:10240000F08106F08000A0B11C4A02EB8401D1F8F3
:10241000001C48F6BF7201EA020080F0100040F490
:10242000004141F08001154B03EB8402C2F8001C0F
:1024300014E0124A02EB8401D1F8001C4BF68F72B3
:1024400001EA020080F4805040F4004141F0800134
:102450000A4B03EB8402C2F8001C00BF0349096861
:10246000886980470020CAE76C01002078010020BD
:10247000D0000020700100206401002000500040C6
:10248000D400002010B5F7480068407A40F02000E2
:10249000F44909684872F4490968C869804700200E
:1024A00010BD10B50246EF480068438A32B98888EB
:1024B000C01AEC4C24682082002010BD0868184423
:1024C000FBE72DE9F041E748006800F11004268899
:1024D000A068C0B1BEB1A588B54200D93546A8B242
:1024E000A168884707462088401B208060882844D0
:1024F0006080002000F07FFF8046AAB24146384647
:1025000000F03EFD00BF208850B14FF44050D74945
:1025100008800021084600F07AFF3020D449088066
:102520002088A188884204DB0320CE49096808720C
:1025300018E02088002804DD0520CA4909680872CF
:1025400010E0208870B90620C64909680872002189
:10255000C848006880B2801CC74A42F8101030207A
:10256000C3490880BDE8F0812DE9F047BD48006807
:1025700000F110052E88BB480068077AD6B9042FF1
:1025800018D1BE48007801280FD10021B948006851
:1025900080B2801CB84A42F810103020B44908803C
:1025A00000BF0020B549087003E007271020B0499C
:1025B000088027E0AC88A64201D8042000E0022071
:1025C0000746B44200D93446A0B2A968884780467D
:1025D000002000F005FF8146A2B24946404600F0C7
:1025E000B5FCA1B2002000F012FF2888001B288053
:1025F00068882044688030209D49088000029B49FB
:10260000088000BF974909680F72BDE8F08770B570
:10261000022694480068447892480068007800F0E8
:102620007F00002844D1092C03D1FFF73CFD06466A
:102630005FE0052C14D18B480068C0787F280BDC44
:1026400088480068807838B986480068808818B95A
:1026500084480068807A08B1082565E0002648E0D3
:10266000032C0ED17F480068C078012807D17D482F
:102670000068808818B9FFF705FF064639E0022692
:1026800037E0012C35D177480068C07801280DD19A
:1026900074480068808848B972480068407A00F041
:1026A000200018B1FFF7D5FD064622E0022620E003
:1026B0006C480068007800F07F00012805D10B2CE1
:1026C00017D1FFF71FFD064613E066480068007843
:1026D00000F07F0002280BD1012C03D1FFF7B9FDD8
:1026E000064606E0032C04D1FFF75EFE064600E036
:1026F00002264EB1E0B2624A126851698847064626
:10270000032E01D109250FE00EB108250CE00625A6
:1027100000215848006880B2801C574A42F81010C7
:1027200030205349088000BF4E4909680D7270BDC2
:102730002DE9F84F4B48006845780027BA46062D2A
:102740001BD148480068007800F07F00002813D1B2
:10275000444909688878012803D149490968CF6943
:102760000AE0022803D1464909680F6A04E00328F9
:1027700002D1434909684F6AADE0002D67D139485D
:1027800000684088002862D136480068C088022866
:102790005DD1344800680079002858D1314800687C
:1027A000007800F07F0030B92E480068808810B9AA
:1027B000AFF24F678FE02B480068007800F07F0091
:1027C000012811D12749096848792D4909688A6982
:1027D0000021904700287ED122480068807A002896
:1027E00079D0AFF27F6776E01E480068007800F08D
:1027F0007F0002286FD11B480068407900F00F0667
:1028000018480068407900F070091648006840795F
:1028100000F0800038B11B4901EB8600D0F8000CB5
:1028200000F0300806E0174901EB8600D0F8000CF4
:1028300000F4405814480078B0424CD9B9F1000F68
:1028400049D1B8F1000F46D0AFF2E76743E0082D59
:102850001CD104480068007800F07F00D8BBAFF2BC
:10286000DB7738E06C010020780100207C0100203B
:102870007E010020505C00400060004066010020A6
:102880007001002000500040D00000200A2D22D10D
:10289000C5480068007800F07F0001281BD1C248BD
:1028A0000068807AB8B1C0480068408898B9BE48CE
:1028B0000068007978B9BC480068C08801280AD14E
:1028C000B94909684879B94909688A690021904776
:1028D00008B9AFF2F17757B1B3480068A0F812A079
:1028E000B148006887610020B84700240FE0AE4A75
:1028F00012685078AD4A1268116988470446032C63
:1029000005D10920A84909680872BDE8F88FA648D2
:102910000068008A4FF6FF71884204D10920A2495D
:1029200009680872F1E7022C03D09F480068008A0A
:1029300020B908209C4909680872E6E79A480068AF
:10294000007800F08000E0B397480068C0880090ED
:1029500095480068008A0099884204D992490098F5
:102960000968088223E090480068008A8E49096857
:10297000C98888421BDA8C480068008A8B4909683C
:1029800091F82C10884203DA0020894908700EE083
:1029900085480068008A8549096891F82C1090FBE9
:1029A000F1F201FB120010B90120814908707F4843
:1029B000006890F82C107C4800688182FFF7D4FDF5
:1029C00007E0FFE7032078490968087200037949A6
:1029D000088000BF99E710B5774890F82C100020C8
:1029E00000F037FD70480068007A082805D14002E1
:1029F000704908801020714908806B480068007A8F
:102A0000092801D1012010BD0020FCE738B50124C0
:102A10006B48006880B2001D6A4931F8100080B22E
:102A200001EB4000009060480068007A092832D02D
:102A3000009800785C49096808700098401C009074
:102A4000009800785849096848700098401C009028
:102A5000009800EB44000090009931F8020B0091BF
:102A600000F0A0FE504909684880009800EB44003F
:102A70000090009931F8020B009100F093FE4A4952
:102A800009688880009800EB440000900098008856
:102A900045490968C88001204349096808724248CD
:102AA0000068C08810B9FFF7B2FD01E0FFF740FEF3
:102AB000FFF791FF38BD30B50146434B1A7800202F
:102AC00014E00306414C04EB9353D3F8003C48F662
:102AD0008F74234048F280042343C4B22343040686
:102AE0003A4D05EB9454C4F8003C401C9042E8D3A6
:102AF00041F08003324C241F236030BD10B52A48BA
:102B00000068047A022C01D0042C05D1FFF72CFDBB
:102B100025480068047A1CE0062C19D12248006878
:102B2000407805280ED120480068007800F07F002A
:102B300040B91D490968C878FFF7BDFF24490968F5
:102B4000086A80471949096888688047082400E0B6
:102B50000824154909680C72FFF73DFF10BD10B538
:102B600011480068047A022C01D0042C01D10824F9
:102B700012E0032C01D0052C05D1FFF7A2FC0A4876
:102B80000068047A08E0072C05D108490968C8687C
:102B90008047082400E00824034909680C72FFF705
:102BA0001AFF10BD704700006C010020700100206A
:102BB000660100207C010020D40000207E0100205E
:102BC000505C004000600040D000002000500040F9
:102BD0007801002010B508480849086002200968FB
:102BE000087207480749086007480849086005490E
:102BF00009680868804710BDE00100206C010020D2
:102C0000D400002070010020040100207801002081
:102C100008B50020009022E1C448008800F00F00B1
:102C2000C34908700846007800287CD1C148006874
:102C3000C14908800846008800F03000BF4908807C
:102C4000BD48008800F44050BB490880B949096874
:102C50004BF6BF7201EA020080F4005080F02000C1
:102C600040F4004141F08001B24A1160AF48008851
:102C700000F0100090BB1046006848F60F71084045
:102C800011460860FFF73AFFAA4909684BF6BF7280
:102C900001EA0200A849098801F4805109B180F4D1
:102CA0008050A549098801F4005109B180F4005011
:102CB000A249098801F0100109B180F010009F4974
:102CC000098801F0200109B180F0200081B241F4AF
:102CD000004141F08001974A116008BDFFE7954827
:102CE000006880B20090BDF8000000F40060B0B34E
:102CF00090480068C0F30E0048F68F7108408D4977
:102D00000860FFF783FE8B4909684BF6BF7201EA42
:102D100002008949098801F4805109B180F480508A
:102D20008549098800E056E001F4005109B180F4BA
:102D300000508249098801F0100109B180F01000AB
:102D40007E49098801F0200109B180F0200081B29C
:102D500041F4004141F08001764A1160BDE7FFE790
:102D6000BDF8000000F40040002878D071480068E9
:102D7000C0F30E0048F68F7108406E490860FFF7F7
:102D8000EEFE6C4909684BF6BF7201EA02006A491F
:102D9000098801F4805109B180F48050664909889E
:102DA00001F4005109B180F400506449098801F030
:102DB000100109B180F010006049098801F020017C
:102DC00009B180F0200081B241F4004141F080015E
:102DD000584A116081E756480078594901EB800054
:102DE000D0F8000C80B20090BDF8000000F4004064
:102DF000C0B14F48007801EB8000D0F8000CC0F360
:102E00000E0048F68F710840494909784C4A02EB98
:102E10008101C1F8000C46490978491E494A52F817
:102E200021008047BDF8000000F08000B8B14048A4
:102E30000078434901EB8000D0F8000C48F60F7190
:102E400008403B4909783E4A02EB8101C1F8000C79
:102E500037490978491E3C4A52F8210080473548D5
:102E60004430006880B23149088000F400400028F6
:102E70007FF4D2AE00BF30E710B500244AE047F639
:102E8000FF702C49443108602848008800F00F008A
:102E90002749087008460078294901EB8000D0F8DE
:102EA000000C84B204F40040C8B12148007801EB62
:102EB0008000D0F8000CC0F30E0048F68F71084077
:102EC0001B4909781E4A02EB8101C1F8000C184920
:102ED0000978491E1B4A52F8210080471AE004F085
:102EE0008000B8B112480078154901EB8000D0F895
:102EF000000C48F60F7108400D490978104A02EBA2
:102F00008101C1F8000C0A490978491E0E4A52F89D
:102F10002100804707484430006880B20349088098
:102F200000F400400028AAD110BD0000800000205D
:102F300068010020005C00407C0100207E01002030
:102F400000500040A80000208C000020F0B514467E
:102F500004F1010C4FEA6C07DFF848C00CEB4103A9
:102F60003D460AE00678401C90F800C046EA0C2274
:102F700023F8022B9B1C401C6D1E002DF2D1F0BDCE
:102F8000F0B5561C7510074E06EB41042B4605E0C4
:102F900034F8047B20F8017B401C5B1E002BF7D12A
:102FA000F0BD000000600040FA4908607047F94831
:102FB000006880B27047F749091D08607047F548FE
:102FC000001D006880B27047F2480830006880B287
:102FD0007047F0490C3108607047EE480C300068CB
:102FE00080B270474FF6F8710140EA4A1032116022
:102FF0007047E8481030006880B27047E64B03EB3A
:103000008002C2F8001C70470146E34A02EB8100CF
:10301000D0F8000C80B2704710B5DF4B03EB800294
:10302000D2F8002C48F68F131A400A43DA4C04EB0E
:103030008003C3F8002C10BD0146D74A02EB810083
:10304000D0F8000C00F4C060704730B5D24C04EBEF
:103050008003D3F8003C48F6BF7403EA040201F091
:1030600010030BB182F0100201F020030BB182F0CB
:10307000200242F4004343F08003C74D05EB800477
:10308000C4F8003C30BD30B5C34C04EB8003D3F82A
:10309000003C4BF68F7403EA040201F480530BB139
:1030A00082F4805201F400530BB182F4005242F4D6
:1030B000004343F08003B84D05EB8004C4F8003CA6
:1030C00030BD30B503460C461846FFF79DFF054658
:1030D000012C07D125F48050AF4A02EB8301C1F8DF
:1030E000000C08E0022C06D125F01000AA4A02EBE1
:1030F0008301C1F8000C30BD0146A74A02EB8100F4
:10310000D0F8000C00F0300070470146A24A02EBF4
:103110008100D0F8000C00F44050704710B59E4B71
:1031200003EB8002D2F8002C48F6BF7302EA0301D9
:1031300081F0100181F0200141F4004242F0800250
:10314000954C04EB8003C3F8002C10BD10B5924BD6
:1031500003EB8002D2F8002C4BF68F7302EA0301D6
:1031600081F4805181F4005141F4004242F0800228
:10317000894C04EB8003C3F8002C10BD864A02EB97
:103180008001D1F8001C41F4807148F68F72114023
:1031900048F280021143804B03EB8002C2F8001C0E
:1031A00070477D4A02EB8001D1F8001C48F68F621F
:1031B000114048F280021143774B03EB8002C2F8C2
:1031C000001C7047744A02EB8001D1F8001C48F6DD
:1031D0008F62114048F2800211436F4B03EB800273
:1031E000C2F8001C70476C4A02EB8001D1F8001C49
:1031F00041F4807148F68F72114048F28002114309
:10320000654B03EB8002C2F8001C7047624A02EB78
:103210008001D1F8001C41F4807148F68F72114092
:1032200048F2800211435C4B03EB8002C2F8001CA1
:103230007047594A02EB8001D1F8001C48F68F62B2
:10324000114048F280021143534B03EB8002C2F855
:10325000001C70470146504A02EB8100D0F8000C78
:1032600000F03000102801D1012070470020FCE759
:103270000146494A02EB8100D0F8000C00F44050AE
:10328000B0F5805F01D1012070470020FCE7424A81
:1032900002EB8001D1F8001CC1F30E0148F68F72D9
:1032A00011403D4B03EB8002C2F8001C70473A4AC4
:1032B00002EB8001D1F8001C48F60F721140364B2A
:1032C00003EB8002C2F8001C7047334A02EB800116
:1032D000D1F8001C48F68F7211404CF28002114365
:1032E0002D4B03EB8002C2F8001C70472A4A02EB08
:1032F0008001D1F8001C48F68F72114048F2C002DC
:103300001143254B03EB8002C2F8001C7047224A90
:1033100002EB8001D1F8001C01F4804171B102EB95
:103320008001D1F8001C48F68F7211404CF28002E7
:103330001143194B03EB8002C2F8001C7047164A78
:1033400002EB8001D1F8001C01F0400171B102EBE9
:103350008001D1F8001C48F68F72114048F2C0027B
:1033600011430D4B03EB8002C2F8001C704710B5EF
:10337000094B03EB8002D2F8002C48F68F731A40F9
:1033800048F280031A430A43034C04EB8003C3F85A
:10339000002C10BD405C0040005000400146FC4A3B
:1033A00002EB8100D0F8000C00F00F00704710B560
:1033B0004A105200F74B1B689BB203EBC003F64C5C
:1033C00044F8132010BD10B54A105300F14A12689A
:1033D00092B202EBC002121DEF4C44F8123010BD45
:1033E0000146EC48006880B200EBC100EA4A32F8BE
:1033F000100080B270470146E648006880B200EBDA
:10340000C100001DE44A32F8100080B27047E14A62
:10341000126892B202EBC002921CDF4B43F812100A
:10342000704702463E290BDD481101F01F030BB91E
:10343000431E98B24FF4004343EA8023136007E031
:10344000481001F001030BB1431C98B283021360D2
:10345000704710B50246CF48006880B200EBC2004A
:10346000801DCD4C04EB40033E290BDD481101F0DB
:103470001F040CB9441EA0B24FF4004444EA802457
:103480001C6007E0481001F001040CB1441CA0B21C
:1034900084021C6010BD0146BE48006880B200EB8B
:1034A000C100801CBC4A32F81000C0F3090070470C
:1034B0000146B848006880B200EBC100801DB64AE2
:1034C00032F81000C0F30900704730B54B105B00B4
:1034D000B04C2468A4B204EBC004AF4D45F81430DE
:1034E00053105C00AB4B1B689BB203EBC0031B1D6E
:1034F00045F8134030BD10B54A105200A54B1B686B
:103500009BB203EBC003A44C44F8132010BD10B5CC
:103510004A1053009F4A126892B202EBC002121D79
:103520009D4C44F8123010BD01469A48006880B2A4
:1035300000EBC100984A32F8100080B27047014693
:103540009448006880B200EBC100001D924A32F836
:10355000100080B2704730B50B46012B1FD18D494A
:10356000096889B201EBC001891C8B4D05EB410450
:103570003E2A0BDD511102F01F050DB94D1EA9B2F7
:103580004FF4004545EA8125256007E0511002F01F
:1035900001050DB14D1CA9B28D0225600AE0022B78
:1035A00008D17C49096889B201EBC001891C7A4CB9
:1035B00044F81120012B1FD17649096889B201EB2B
:1035C000C001891D744D05EB41043E2A0BDD5111EC
:1035D00002F01F050DB94D1EA9B24FF4004545EA92
:1035E0008125256007E0511002F001050DB14D1C49
:1035F000A9B28D0225600AE0022B08D1654909684D
:1036000089B201EBC001891D634C44F8112030BD23
:1036100030B5034601291FD15E48006880B200EB37
:10362000C300801C5C4D05EB40043E2A0BDD5011AD
:1036300002F01F050DB9451EA8B24FF4004545EA3A
:103640008025256007E0501002F001050DB1451CF2
:10365000A8B2850225600AE0022908D14D48006819
:1036600080B200EBC300801C4B4C44F8102030BDEE
:1036700030B5034601291FD14648006880B200EBEF
:10368000C300801D444D05EB40043E2A0BDD501164
:1036900002F01F050DB9451EA8B24FF4004545EADA
:1036A0008025256007E0501002F001050DB1451C92
:1036B000A8B2850225600AE0022908D135480068D1
:1036C00080B200EBC300801D334C44F8102030BDA5
:1036D00001463048006880B200EBC100801C2E4AD1
:1036E00032F81000C0F3090070470146294800680D
:1036F00080B200EBC100801D274A32F81000C0F3F1
:103700000900704701462348006880B200EBC10001
:10371000801D214A32F8100000F47C4008B10120DD
:1037200070471C48006880B200EBC100801C1A4A38
:1037300032F81000C0F3090008B10220F0E70020C1
:10374000EEE710B5012910D1114B03EB8002D2F83E
:10375000002C48F68F731A4048F2C0031A430C4CF1
:1037600004EB8003C3F8002C11E002290FD1084BB1
:1037700003EB8002D2F8002C48F68F731A404CF20B
:1037800080031A43024C04EB8003C3F8002C10BDE5
:1037900000500040505C004000600040024641EA9A
:1037A000022070470146CAB20B1243EA022070475A
:1037B00000201D4908604FF43F401C49088008461E
:1037C00000881949091F0860002070472DE9F04161
:1037D00004460E46154604F07F00FFF701FE07463B
:1037E000AAB239463046FFF7B1FBA9B204F07F0018
:1037F000FFF70DFE0020BDE8F0812DE9F041044601
:103800000E46002504F07F00FFF752FE054604F047
:103810007F00FFF7F0FD07462A4639463046FFF79E
:10382000AFFB2846BDE8F081445C004076010020F3
:10383000064C074D06E0E06840F0010394E80700FD
:1038400098471034AC42F6D3FCF7A2FC7C39000850
:103850009C39000870B58C1810F8015B15F007034F
:1038600001D110F8013B2A1106D110F8012B03E019
:1038700010F8016B01F8016B5B1EF9D12B0705D421
:103880000023521E0DD401F8013BFAE710F8013B6A
:10389000CB1A921C03E013F8015B01F8015B521E86
:1038A000F9D5A142D8D3002070BD02E008C8121F8C
:1038B00008C1002AFAD170477047002001E001C119
:1038C000121F002AFBD170471201000202000040C3
:1038D0008304405700020102030109024300020170
:1038E00000C032090400000102020100052400109A
:1038F0000105240100010424020205240600010739
:103900000582030800FF09040100020A0000000705
:10391000050302400000070581024000000403097E
:10392000042603530054004D006900630072006FC9
:103930000065006C0065006300740072006F006E2B
:10394000006900630073003203530054004D0033DC
:10395000003200200056006900720074007500619A
:10396000006C00200043004F004D00200050006F0D
:103970000072007400200020000000009C39000844
:10398000000000208001000054380008403A000880
:103990008001002080040000BA3800081184A24A87
:1039A00004680901020304060708090C89101201C2
:1039B0001202120412061208120A120C121012201D
:1039C00012402A80170121141A03531254124D1267
:1039D0003302213213C5190C1C08A52B040A11D57A
:1039E00024512AC28D12081A040713FD1B14081F44
:1039F0001C14080D1D1B0823041A4D041AA30413DC
:103A0000031E1B08C7081AD5041AE30441324029D3
:103A1000441AF7300916741A052C13C838330812E3
:103A20001ADA083243131D393308041A21083226E2
:103A30001A470829E2226073201A29920120000007
:040000050800018965
:00000001FF
